:100000000C9446000C9465000C9465000C946500FB
:100010000C9465000C9465000C9465000C946500CC
:100020000C9465000C9465000C9465000C946500BC
:100030000C9465000C9465000C9465000C946500AC
:100040000C949C010C9465000C9465000C94650064
:100050000C9465000C9465000C9465000C9465008C
:100060000C9465000C9465000C9465000C9465007C
:100070000C9465000C9465000C940B010C945401D5
:100080000C9465000C9465000C94650011241FBE4F
:10009000CFEFD0E1DEBFCDBF11E0A0E0B1E0EAE8F4
:1000A000FDE000E00BBF02C007900D92A836B1073B
:1000B000D9F711E0A8E6B1E001C01D92A13CB1075B
:1000C000E1F70E94C8010C94C3060C940000DF9372
:1000D000CF93CDB7DEB7C95ED3400FB6F894DEBF7D
:1000E0000FBECDBFFE01E751FC4F808320916F0111
:1000F00030917001FE01E751FC4F8081482F50E0A4
:100100008DB79EB708970FB6F8949EBF0FBE8DBFF0
:10011000EDB7FEB73196CE0101969183808384E0DE
:1001200091E09383828335832483578346830E949F
:10013000EC038DB79EB708960FB6F8949EBF0FBE1E
:100140008DBFCE0101960E94AF00C751DC4F0FB6A4
:10015000F894DEBF0FBECDBFCF91DF910895DF933E
:10016000CF9300D0CDB7DEB79A83898381E791E042
:1001700029813A81B9010E94CF0310926E01109239
:100180006D01ECE9F0E0809171018083AAE9B0E0B3
:10019000EAE9F0E0808180628C930F900F90CF911C
:1001A000DF910895DF93CF9300D00F92CDB7DEB7E4
:1001B00080916F01909170019B838A8319828A815B
:1001C0009B8120E18130920710F081E089838A8150
:1001D0009B8101969093700180936F01998199237F
:1001E00021F01092700110926F010F900F900F90FC
:1001F000CF91DF910895DF93CF93CDB7DEB7809194
:100200006F019091700101979093700180936F013D
:10021000CF91DF9108951F920F920FB60F92009029
:100220005B000F9211242F933F938F939F93EF9333
:10023000FF93DF93CF930F92CDB7DEB7ECE9F0E0F9
:1002400080818983ECE9F0E08981808389818D3028
:1002500021F481E08093680116C080916B01909138
:100260006C018832910578F420916B0130916C011A
:10027000F901E756FE4F89818083C9010196909369
:100280006C0180936B010F90CF91DF91FF91EF9103
:100290009F918F913F912F910F9000925B000F9053
:1002A0000FBE0F901F9018951F920F920FB60F92CE
:1002B00000905B000F9211248F939F93AF93BF9395
:1002C000EF93FF93DF93CF93CDB7DEB780916D01AE
:1002D00090916E01019690936E0180936D018091D3
:1002E0006D0190916E01FC01EF58FE4F80818823D3
:1002F00041F4AAE9B0E0EAE9F0E080818F7D8C93D7
:100300000BC0ACE9B0E080916D0190916E01FC01F1
:10031000EF58FE4F80818C93CF91DF91FF91EF9149
:10032000BF91AF919F918F910F9000925B000F90C2
:100330000FBE0F901F9018951F920F920FB60F923D
:1003400011248F939F93DF93CF93CDB7DEB7809126
:1003500002019091030101979093030180930201A0
:100360008091020190910301009749F481E080930C
:1003700000018AE090E09093030180930201CF9105
:10038000DF919F918F910F900FBE0F901F90189546
:10039000DF93CF93CDB7DEB7CB50D1400FB6F894F3
:1003A000DEBF0FBECDBF1D821C821B821A82E2E21D
:1003B000F0E08EE08083E7E3F0E01082E8E3F0E035
:1003C0001082E3E5F0E087E08083E7E5F0E081E09C
:1003D0008083E9E9F0E083E38083E8E9F0E01082DC
:1003E000EBE9F0E01082EAE9F0E088E98083EDE9EA
:1003F000F0E08EE080837894A5E5B0E0E5E5F0E0FC
:100400008081837E8C93198618860EC02885398555
:100410004885CE010A96FC01E20FF31F40838885D0
:100420009985019699878887888599858F3F910559
:1004300069F364F3CE010A969093700180936F0183
:10044000E0916F01F0917001808189838091690151
:10045000882311F00E94890380916A01882329F082
:1004600089810E94670010926A0180916A01882345
:1004700009F0B0C08A819B818230910539F40E94D5
:10048000D2001B821A8281E080936A018091000170
:10049000882309F49FC080910101882309F493C047
:1004A0008C819D81C65FDE4F99838883CA50D1407D
:1004B000C65FDE4F88819981CA50D1408130910555
:1004C000C9F1C65FDE4F88819981CA50D140823020
:1004D000910509F455C0C65FDE4F88819981CA50E5
:1004E000D140009709F06FC0E3E2F0E08981882FE6
:1004F00090E080789070880F991F282F8981882F2D
:1005000090E080749070880F991F880F991F282B96
:100510008981882F90E080729070880F991F880FD2
:10052000991F880F991F822B808381E090E09D8323
:100530008C8349C0E3E2F0E08981882F90E08071EC
:100540009070880F991F282F8981882F90E08870DC
:100550009070880F991F880F991F282B8981882FE9
:1005600090E084709070880F991F880F991F880FF2
:10057000991F822B808382E090E09D838C8323C02F
:10058000E3E2F0E08981882F90E082709070880F1C
:10059000991F282F8981882F90E081709070880F93
:1005A000991F880F991F282B8981882F90E08072CE
:1005B0009070880F991F880F991F880F991F822BA1
:1005C00080831D821C82109200018A819B8101968A
:1005D0009B838A8380916801882321F010926801AF
:1005E0000E940203A5E5B0E0E5E5F0E080818062CD
:1005F0008C938895A5E5B0E0E5E5F0E080818F7DFE
:100600008C931ECFDF93CF9300D000D000D0CDB716
:10061000DEB789E991E02EE131E0B90146E050E032
:100620000E94D603009721F481E08093690168C09D
:1006300089E991E025E231E0B90147E050E00E940C
:10064000D603009719F4109269015AC089E991E024
:100650002DE231E0B90148E050E00E94D603009756
:1006600021F481E0809301014BC089E991E026E308
:1006700031E0B90149E050E00E94D603009719F437
:10068000109201013DC089E991E020E431E0B90117
:1006900043E050E00E94D603009771F51A8214C01F
:1006A0008A81482F50E08A81882F90E00496FC01CF
:1006B000E756FE4F2081CE010396FC01E40FF51FA3
:1006C00020838A818F5F8A838A81843048F3CE01B8
:1006D00003960E94B10389838981882341F089812F
:1006E000882F90E09093700180936F0109C084E49B
:1006F00091E00E94AF0004C083E591E00E94AF004A
:1007000026960FB6F894DEBF0FBECDBFCF91DF9116
:100710000895DF93CF9300D0CDB7DEB7E6E3F0E0E6
:100720008081882F90E09A83898389819A81807261
:100730009070009731F00E94D20081E080936A01AE
:100740000BC089819A8180749070009729F00E9473
:10075000FB0081E080936A010F900F90CF91DF91B1
:100760000895FC0188279927E89421912032E9F324
:10077000293010F02E30C8F32B3241F02D3239F4ED
:10078000689404C00E94E403820F911D21912053BC
:100790002A30C0F31EF4909581959F4F0895FB0178
:1007A000DC0101900D920020E1F70895FB01DC01CE
:1007B0004150504030F08D910190801919F4002083
:1007C000B9F7881B990B08957AE0979F902D879F22
:1007D000802D910D112408950F931F93DF93CF93D4
:1007E000CDB7DEB72E970FB6F894DEBF0FBECDBFE4
:1007F0000D891E8986E08C831A8309838FEF9FE71A
:100800009E838D839E01275E3F4FCE0101966F89A7
:10081000788DA9010E941D042F813885020F131FB6
:10082000F80110822E960FB6F894DEBF0FBECDBF32
:10083000CF91DF911F910F9108952F923F924F9288
:100840005F926F927F928F929F92AF92BF92CF9260
:10085000DF92EF92FF920F931F93DF93CF93CDB769
:10086000DEB72B970FB6F894DEBF0FBECDBF3C01AD
:100870002B015A01FC0117821682838181FD03C07E
:100880006FEF7FEFC6C19AE0892E1E010894211CEC
:10089000311CF3012381F20123FD859123FF819116
:1008A0002F01882309F4B2C1853239F423FD8591E3
:1008B00023FF81912F01853229F490E0B3010E943A
:1008C0003906E7CF982FFF24EE249924FFE1FF1586
:1008D000D0F09B3269F09C3228F4903259F0933278
:1008E00091F40EC09D3249F0903369F441E024C088
:1008F00052E0F52A84E0F82A28C098E0F92A25C0B9
:10090000E0E1FE2A22C0F7FC29C0892F80538A30FB
:1009100070F4F6FE05C0989C902C1124980E15C01A
:10092000E89CE02C1124E80EF0E2FF2A0EC09E3273
:1009300029F4F6FC6BC140E4F42A07C09C3619F494
:1009400050E8F52A02C0983649F4F20123FD95914A
:1009500023FF91912F01992309F0B8CF892F855456
:10096000833018F08052833038F444E050E0A40E15
:10097000B51E5FE359830FC0933631F0933779F09A
:10098000933509F056C020C0F5018081898342E08B
:1009900050E0A40EB51E610101E010E012C0F501A7
:1009A000C080D180F6FC03C06FEF7FEF02C0692DDD
:1009B00070E042E050E0A40EB51EC6010E942E0673
:1009C0008C015FE7F52214C0F501C080D180F6FCF0
:1009D00003C06FEF7FEF02C0692D70E042E050E08E
:1009E000A40EB51EC6010E9423068C0150E8F52A0C
:1009F000F3FE07C01AC080E290E0B3010E943906FE
:100A0000EA948E2D90E008171907A8F30EC0F6019E
:100A1000F7FC8591F7FE81916F0190E0B3010E9490
:100A20003906E110EA94015010400115110579F7DB
:100A3000EAC0943611F0993669F5F7FE08C0F50161
:100A4000208131814281538184E090E00AC0F50128
:100A5000808191819C01442737FD4095542F82E08D
:100A600090E0A80EB91E9FE6F92257FF09C05095E5
:100A70004095309521953F4F4F4F5F4FE0E8FE2A5C
:100A8000CA01B901A1012AE030E00E946506D82E12
:100A9000D21840C0953729F41F2D1F7E2AE030E080
:100AA0001DC01F2D197F9F3661F0903720F49835B7
:100AB00009F0ACC00FC0903739F0983709F0A6C0E4
:100AC00004C028E030E00AC0106114FD146020E189
:100AD00030E004C014FD166020E132E017FF08C0CA
:100AE000F501608171818281938144E050E008C00A
:100AF000F50180819181BC0180E090E042E050E00E
:100B0000A40EB51EA1010E946506D82ED2188FE74B
:100B1000F82EF122F6FE0BC05EEFF522D91438F460
:100B2000F4FE07C0F2FC05C08FEEF82202C01D2DB6
:100B300001C0192DF4FE0DC0FE01ED0DF11D8081E7
:100B4000803319F499EEF92208C01F5FF2FE05C048
:100B500003C08F2D867809F01F5F0F2DF3FC14C0A2
:100B6000F0FE0FC01E1510F09D2C0BC09D2C9E0C8E
:100B7000911A1E2D06C080E290E0B3010E94390652
:100B80001F5F1E15C0F304C01E1510F4E11A01C04A
:100B9000EE2404FF0FC080E390E0B3010E94390609
:100BA00002FF1DC001FD03C088E790E00EC088E58C
:100BB00090E00BC0802F867891F001FF02C08BE29D
:100BC00001C080E2F7FC8DE290E0B3010E9439069B
:100BD00006C080E390E0B3010E9439069A94D914CC
:100BE000C0F3DA94F101ED0DF11D808190E0B301C5
:100BF0000E943906DD20A9F706C080E290E0B3012B
:100C00000E943906EA94EE20C1F743CEF3016681D3
:100C10007781CB012B960FB6F894DEBF0FBECDBF08
:100C2000CF91DF911F910F91FF90EF90DF90CF90C8
:100C3000BF90AF909F908F907F906F905F904F90FC
:100C40003F902F900895FC01059061507040011075
:100C5000D8F7809590958E0F9F1F0895FC016150E5
:100C6000704001900110D8F7809590958E0F9F1FCE
:100C700008950F931F93CF93DF938C01EB018B812A
:100C800081FF1BC082FF0DC02E813F818C819D8121
:100C90002817390764F4E881F9810193F983E8831F
:100CA00006C0E885F985802F0995892B31F48E815E
:100CB0009F8101969F838E8302C00FEF1FEFC801B3
:100CC000DF91CF911F910F910895FA01AA27283043
:100CD00051F1203181F1E8946F936E7F6E5F7F4F09
:100CE0008F4F9F4FAF4FB1E03ED0B4E03CD0670F85
:100CF000781F891F9A1FA11D680F791F8A1F911DD8
:100D0000A11D6A0F711D811D911DA11D20D009F427
:100D100068943F912AE0269F11243019305D319369
:100D2000DEF6CF010895462F4770405D4193B3E052
:100D30000FD0C9F7F6CF462F4F70405D4A3318F0F9
:100D4000495D31FD4052419302D0A9F7EACFB4E0AA
:100D5000A6959795879577956795BA95C9F7009762
:100D60006105710508959B01AC010A2E0694579503
:100D7000479537952795BA95C9F7620F731F841F5A
:0A0D8000951FA01D0895F894FFCF01
:100D8A0001013D00616472657373203D2025642C66
:100D9A002076616C7565203D2025640A0D006B651F
:100DAA00795F6F6E006B65795F6F6666006C696765
:100DBA0068745F6F6E006C696768745F6F6666005F
:100DCA00676574006261642061726464726573733A
:100DDA000A0D00756E646566696E656420636F6DE1
:080DEA006D616E640A0D00004A
:00000001FF
